S010000044435F6D6F746F722E73726563FD
S11300000C942A000C9487010C9447000C94B001C2
S11300100C9447000C949D010C9447000C944700E9
S11300200C9447000C9447000C9447000C94470030
S11300300C9447000C9447000C9447000C94470020
S11300400C9447000C9447000C9447000C94470010
S11300500C94470011241FBECFE5D8E0DEBFCDBF0E
S113006010E0A0E6B0E0EEEAF3E002C005900D92E5
S1130070A239B107D9F720E0A2E9B0E001C01D928E
S1130080A839B207E1F70E9428010C94D5010C9419
S1130090000082E680B984E086BF11B8089584EA3E
S11300A086BF06B607FEFDCF089583B984E886BFF0
S11300B006B607FEFDCF0895992354F40895215000
S11300C03109E9F74F5F5F4F841795071CF40895D2
S11300D040E050E029E730E0F2CF199A84E886BF87
S11300E006B607FEFDCF81E090E00E945C001998FF
S11300F084E886BF06B607FEFDCF0895189894E8F5
S113010096BF06B607FEFDCF93B19F7093B994E8EE
S113011096BF06B607FEFDCF93B1807F892B83B9C6
S113012084E886BF06B607FEFDCF0E946D000895E1
S1130130CF93C82F189884E886BF06B607FEFDCF74
S113014083B18F7083B984E886BF06B607FEFDCFFE
S113015083B19C2F907F892B83B984E886BF06B630
S113016007FEFDCF0E946D0083B18F7083B984E8D0
S113017086BF06B607FEFDCF23B130E1C39FC001A1
S11301801124822B83B984E886BF06B607FEFDCF0F
S11301900E946D00CF91089580E30E947E0080E369
S11301A00E947E0080E20E947E0088E20E94980005
S11301B08CE00E94980081E00E94980086E00E94F2
S11301C0980080E80E9498000895CF93C82F189A49
S11301D084E886BF06B607FEFDCF83B18F7083B96E
S11301E084E886BF06B607FEFDCF83B19C2F907FBF
S11301F0892B83B984E886BF06B607FEFDCF0E942B
S11302006D0083B18F7083B984E886BF06B607FE9C
S1130210FDCF23B130E1C39FC0011124822B83B9E8
S113022084E886BF06B607FEFDCF0E946D00CF911D
S11302300895CF93DF93EC018881882331F02196D0
S11302400E94E50089918111FBCFDF91CF91089540
S1130250B998C19A8FEF8ABB84BBBB9AE09197008F
S1130260F0E0E05AFF4F80818CBF81E683BF8A981B
S1130270929A82E084BF80E48BBF789484B784BF71
S11302808BB780628BBF87E085BD8CE384BD89B763
S1130290806489BF0E9449000E944F0080E70E9449
S11302A055000E94CC00D2E0C1E0B19902C0CBBBA2
S11302B001C0DBBBE0919700F0E0E05AFF4F808182
S11302C08CBF80E80E94980080919700811105C03E
S11302D084E690E00E94190112C0813029F48DE671
S11302E090E00E9419010BC0823029F486E790E067
S11302F00E94190104C08FE790E00E94190180EC6C
S11303000E94980089E890E00E941901CECF1F92C4
S11303100F920FB60F9211248F93809197008F5FE5
S1130320843018F48093970002C0109297008F9144
S11303300F900FBE0F901F9018951F920F920FB63B
S11303400F9211248F938CE384BD809192008F5F70
S1130350809392008F910F900FBE0F901F9018956D
S11303601F920F920FB60F9211248F939F93AF9306
S1130370BF938091930090919400A0919500B091C7
S113038096000196A11DB11D809393009093940053
S1130390A0939500B0939600BF91AF919F918F91D8
S11103A00F900FBE0F901F901895F894FFCF8A
S11303AE4080BFFF442E433A2032352500442E436D
S11303BE3A2035302500442E433A20373525004463
S11303CE2E433A20313030250053706565643A204F
S10503DE000019
S9030000FC
